{
  "contractName": "EthCoupon",
  "abi": [
    {
      "inputs": [],
      "stateMutability": "nonpayable",
      "type": "constructor"
    },
    {
      "anonymous": false,
      "inputs": [
        {
          "indexed": true,
          "internalType": "bytes32",
          "name": "couponHash",
          "type": "bytes32"
        },
        {
          "indexed": false,
          "internalType": "uint256",
          "name": "amount",
          "type": "uint256"
        },
        {
          "indexed": false,
          "internalType": "uint256",
          "name": "date",
          "type": "uint256"
        }
      ],
      "name": "CollectLeftOver",
      "type": "event"
    },
    {
      "anonymous": false,
      "inputs": [
        {
          "indexed": true,
          "internalType": "bytes32",
          "name": "couponHash",
          "type": "bytes32"
        },
        {
          "indexed": true,
          "internalType": "address",
          "name": "sponsorAddress",
          "type": "address"
        },
        {
          "indexed": true,
          "internalType": "address",
          "name": "targetAddress",
          "type": "address"
        },
        {
          "indexed": false,
          "internalType": "string",
          "name": "couponCode",
          "type": "string"
        },
        {
          "indexed": false,
          "internalType": "uint256",
          "name": "totalEth",
          "type": "uint256"
        },
        {
          "indexed": false,
          "internalType": "uint256",
          "name": "amtPerAddress",
          "type": "uint256"
        },
        {
          "indexed": false,
          "internalType": "uint256",
          "name": "startDate",
          "type": "uint256"
        },
        {
          "indexed": false,
          "internalType": "uint256",
          "name": "endDate",
          "type": "uint256"
        },
        {
          "indexed": false,
          "internalType": "uint256",
          "name": "minRedeemAmt",
          "type": "uint256"
        },
        {
          "indexed": false,
          "internalType": "uint256",
          "name": "maxRedeemAmt",
          "type": "uint256"
        },
        {
          "indexed": false,
          "internalType": "uint256",
          "name": "dateCreated",
          "type": "uint256"
        }
      ],
      "name": "Promotion",
      "type": "event"
    },
    {
      "anonymous": false,
      "inputs": [
        {
          "indexed": true,
          "internalType": "bytes32",
          "name": "couponHash",
          "type": "bytes32"
        },
        {
          "indexed": true,
          "internalType": "address",
          "name": "user",
          "type": "address"
        },
        {
          "indexed": false,
          "internalType": "bytes32",
          "name": "RedeemID",
          "type": "bytes32"
        },
        {
          "indexed": false,
          "internalType": "uint256",
          "name": "date",
          "type": "uint256"
        }
      ],
      "name": "Redeem",
      "type": "event"
    },
    {
      "anonymous": false,
      "inputs": [
        {
          "indexed": true,
          "internalType": "string",
          "name": "couponHash",
          "type": "string"
        },
        {
          "indexed": false,
          "internalType": "uint256",
          "name": "amount",
          "type": "uint256"
        },
        {
          "indexed": false,
          "internalType": "uint256",
          "name": "date",
          "type": "uint256"
        }
      ],
      "name": "TopUp",
      "type": "event"
    },
    {
      "anonymous": false,
      "inputs": [
        {
          "indexed": true,
          "internalType": "bytes32",
          "name": "RedeemID",
          "type": "bytes32"
        },
        {
          "indexed": false,
          "internalType": "uint256",
          "name": "couponAmt",
          "type": "uint256"
        },
        {
          "indexed": false,
          "internalType": "uint256",
          "name": "walletAmt",
          "type": "uint256"
        }
      ],
      "name": "Transaction",
      "type": "event"
    },
    {
      "inputs": [
        {
          "internalType": "string",
          "name": "promoCode",
          "type": "string"
        },
        {
          "internalType": "uint256",
          "name": "totalPerAddress",
          "type": "uint256"
        },
        {
          "internalType": "address",
          "name": "targetAddress",
          "type": "address"
        },
        {
          "internalType": "uint256",
          "name": "startDate",
          "type": "uint256"
        },
        {
          "internalType": "uint256",
          "name": "endDate",
          "type": "uint256"
        },
        {
          "internalType": "uint256",
          "name": "minRedeemAmt",
          "type": "uint256"
        },
        {
          "internalType": "uint256",
          "name": "maxRedeemAmt",
          "type": "uint256"
        }
      ],
      "name": "mint",
      "outputs": [],
      "stateMutability": "payable",
      "type": "function"
    },
    {
      "inputs": [
        {
          "internalType": "string",
          "name": "promoCode",
          "type": "string"
        }
      ],
      "name": "collectLeftoverEther",
      "outputs": [],
      "stateMutability": "nonpayable",
      "type": "function"
    },
    {
      "inputs": [
        {
          "internalType": "string",
          "name": "promoCode",
          "type": "string"
        }
      ],
      "name": "topUp",
      "outputs": [],
      "stateMutability": "payable",
      "type": "function"
    },
    {
      "inputs": [
        {
          "internalType": "string",
          "name": "promoCode",
          "type": "string"
        }
      ],
      "name": "checkPromotionalBalance",
      "outputs": [
        {
          "internalType": "uint256",
          "name": "leftOver",
          "type": "uint256"
        },
        {
          "internalType": "uint256",
          "name": "unspentEther",
          "type": "uint256"
        }
      ],
      "stateMutability": "view",
      "type": "function"
    },
    {
      "inputs": [
        {
          "internalType": "string",
          "name": "promoCode",
          "type": "string"
        }
      ],
      "name": "redeem",
      "outputs": [],
      "stateMutability": "nonpayable",
      "type": "function"
    },
    {
      "inputs": [
        {
          "internalType": "string",
          "name": "promoCode",
          "type": "string"
        },
        {
          "internalType": "uint256",
          "name": "couponAmt",
          "type": "uint256"
        }
      ],
      "name": "transaction",
      "outputs": [],
      "stateMutability": "payable",
      "type": "function"
    },
    {
      "inputs": [
        {
          "internalType": "string",
          "name": "promoCode",
          "type": "string"
        }
      ],
      "name": "checkCouponBalance",
      "outputs": [
        {
          "internalType": "uint256",
          "name": "amt",
          "type": "uint256"
        }
      ],
      "stateMutability": "view",
      "type": "function"
    },
    {
      "inputs": [
        {
          "internalType": "string",
          "name": "promoCode",
          "type": "string"
        }
      ],
      "name": "checkPromotionDetails",
      "outputs": [
        {
          "internalType": "uint256",
          "name": "totalPerAddress",
          "type": "uint256"
        },
        {
          "internalType": "bool",
          "name": "isPromoValid",
          "type": "bool"
        },
        {
          "internalType": "address",
          "name": "targetAddress",
          "type": "address"
        },
        {
          "internalType": "uint256",
          "name": "startDate",
          "type": "uint256"
        },
        {
          "internalType": "uint256",
          "name": "endDate",
          "type": "uint256"
        },
        {
          "internalType": "uint256",
          "name": "minRedeemAmt",
          "type": "uint256"
        },
        {
          "internalType": "uint256",
          "name": "maxRedeemAmt",
          "type": "uint256"
        }
      ],
      "stateMutability": "view",
      "type": "function"
    }
  ],
  "bytecode": "0x608060405234801561001057600080fd5b5060016000819055506130d0806100286000396000f3fe60806040526004361061007b5760003560e01c8063ab3db5fb1161004e578063ab3db5fb1461010a578063ac9cfa5614610147578063be82015e1461018a578063cac1468c146101c85761007b565b806309cc5551146100805780630b952c061461009c5780631222c25a146100c55780639a4e844f146100ee575b600080fd5b61009a60048036038101906100959190611c4a565b6101e4565b005b3480156100a857600080fd5b506100c360048036038101906100be9190611c4a565b610494565b005b3480156100d157600080fd5b506100ec60048036038101906100e79190611c4a565b6107c8565b005b61010860048036038101906101039190611cc9565b610c84565b005b34801561011657600080fd5b50610131600480360381019061012c9190611c4a565b6111e9565b60405161013e9190611d34565b60405180910390f35b34801561015357600080fd5b5061016e60048036038101906101699190611c4a565b61130b565b6040516101819796959493929190611dab565b60405180910390f35b34801561019657600080fd5b506101b160048036038101906101ac9190611c4a565b61142d565b6040516101bf929190611e1a565b60405180910390f35b6101e260048036038101906101dd9190611e6f565b611562565b005b80600060016000836040516020016101fc9190611fa7565b60405160208183030381529060405280519060200120815260200190815260200160002090508060000160009054906101000a900473ffffffffffffffffffffffffffffffffffffffff1673ffffffffffffffffffffffffffffffffffffffff163373ffffffffffffffffffffffffffffffffffffffff16146102b4576040517f08c379a00000000000000000000000000000000000000000000000000000000081526004016102ab90612041565b60405180910390fd5b82600060016000836040516020016102cc9190611fa7565b60405160208183030381529060405280519060200120815260200190815260200160002090504281600401541115801561030a575042816005015410155b610349576040517f08c379a0000000000000000000000000000000000000000000000000000000008152600401610340906120ad565b60405180910390fd5b6000341161038c576040517f08c379a00000000000000000000000000000000000000000000000000000000081526004016103839061213f565b60405180910390fd5b60008560405160200161039f9190611fa7565b6040516020818303038152906040528051906020012090503460016000838152602001908152602001600020600101546103d9919061218e565b6001600083815260200190815260200160002060010181905550346003600083815260200190815260200160002054610412919061218e565b600360008381526020019081526020016000208190555034600454610437919061218e565b6004819055508560405161044b9190611fa7565b60405180910390207f998caf0754750a8c9c847ee19f1d4571559cd5a01821c1c4e41b6ab942c5b5743442604051610484929190611e1a565b60405180910390a2505050505050565b80600060016000836040516020016104ac9190611fa7565b60405160208183030381529060405280519060200120815260200190815260200160002090508060000160009054906101000a900473ffffffffffffffffffffffffffffffffffffffff1673ffffffffffffffffffffffffffffffffffffffff163373ffffffffffffffffffffffffffffffffffffffff1614610564576040517f08c379a000000000000000000000000000000000000000000000000000000000815260040161055b90612041565b60405180910390fd5b600260005414156105aa576040517f08c379a00000000000000000000000000000000000000000000000000000000081526004016105a190612230565b60405180910390fd5b60026000819055506000836040516020016105c59190611fa7565b60405160208183030381529060405280519060200120905060016000828152602001908152602001600020600501544211610635576040517f08c379a000000000000000000000000000000000000000000000000000000000815260040161062c906122c2565b60405180910390fd5b60006001600083815260200190815260200160002060000160009054906101000a900473ffffffffffffffffffffffffffffffffffffffff16905060006003600084815260200190815260200160002054905060006003600085815260200190815260200160002081905550806004546106af91906122e2565b6004819055506000600160008581526020019081526020016000206001018190555060008273ffffffffffffffffffffffffffffffffffffffff16826040516106f790612347565b60006040518083038185875af1925050503d8060008114610734576040519150601f19603f3d011682016040523d82523d6000602084013e610739565b606091505b505090508061077d576040517f08c379a0000000000000000000000000000000000000000000000000000000008152600401610774906123a8565b60405180910390fd5b837fd1b77870de49981fe2c8826f6fbf9d48720beab8c9df3ba0f9fc3045bb89c3b383426040516107af929190611e1a565b60405180910390a2505050506001600081905550505050565b80600060016000836040516020016107e09190611fa7565b60405160208183030381529060405280519060200120815260200190815260200160002090504281600401541115801561081e575042816005015410155b61085d576040517f08c379a0000000000000000000000000000000000000000000000000000000008152600401610854906120ad565b60405180910390fd5b6000836040516020016108709190611fa7565b6040516020818303038152906040528051906020012090503373ffffffffffffffffffffffffffffffffffffffff166001600083815260200190815260200160002060000160009054906101000a900473ffffffffffffffffffffffffffffffffffffffff1673ffffffffffffffffffffffffffffffffffffffff16141561092d576040517f08c379a000000000000000000000000000000000000000000000000000000000815260040161092490612414565b60405180910390fd5b3373ffffffffffffffffffffffffffffffffffffffff166001600083815260200190815260200160002060030160009054906101000a900473ffffffffffffffffffffffffffffffffffffffff1673ffffffffffffffffffffffffffffffffffffffff1614156109d2576040517f08c379a00000000000000000000000000000000000000000000000000000000081526004016109c9906124a6565b60405180910390fd5b600160008281526020019081526020016000206002015460016000838152602001908152602001600020600101541015610a41576040517f08c379a0000000000000000000000000000000000000000000000000000000008152600401610a3890612538565b60405180910390fd5b60008433604051602001610a569291906125a0565b6040516020818303038152906040528051906020012090503373ffffffffffffffffffffffffffffffffffffffff166002600083815260200190815260200160002060010160009054906101000a900473ffffffffffffffffffffffffffffffffffffffff1673ffffffffffffffffffffffffffffffffffffffff161415610b13576040517f08c379a0000000000000000000000000000000000000000000000000000000008152600401610b0a9061263a565b60405180910390fd5b84604051602001610b249190611fa7565b604051602081830303815290604052805190602001206002600083815260200190815260200160002060000181905550336002600083815260200190815260200160002060010160006101000a81548173ffffffffffffffffffffffffffffffffffffffff021916908373ffffffffffffffffffffffffffffffffffffffff1602179055506001600083815260200190815260200160002060020154600260008381526020019081526020016000206002018190555060016000838152602001908152602001600020600201546001600084815260200190815260200160002060010154610c1291906122e2565b60016000848152602001908152602001600020600101819055503373ffffffffffffffffffffffffffffffffffffffff16827f33d16d3fff90c27c9182e428bb587631c2b122182df38902b3cba080c3ad51e28342604051610c75929190612673565b60405180910390a35050505050565b8160006001600083604051602001610c9c9190611fa7565b604051602081830303815290604052805190602001208152602001908152602001600020905042816004015411158015610cda575042816005015410155b610d19576040517f08c379a0000000000000000000000000000000000000000000000000000000008152600401610d10906120ad565b60405180910390fd5b836000600260008333604051602001610d339291906125a0565b60405160208183030381529060405280519060200120815260200190815260200160002090503373ffffffffffffffffffffffffffffffffffffffff168160010160009054906101000a900473ffffffffffffffffffffffffffffffffffffffff1673ffffffffffffffffffffffffffffffffffffffff1614610deb576040517f08c379a0000000000000000000000000000000000000000000000000000000008152600401610de29061270e565b60405180910390fd5b60026000541415610e31576040517f08c379a0000000000000000000000000000000000000000000000000000000008152600401610e2890612230565b60405180910390fd5b6002600081905550600086604051602001610e4c9190611fa7565b6040516020818303038152906040528051906020012090506000341015610ea8576040517f08c379a0000000000000000000000000000000000000000000000000000000008152600401610e9f906127a0565b60405180910390fd5b60008611610eeb576040517f08c379a0000000000000000000000000000000000000000000000000000000008152600401610ee290612832565b60405180910390fd5b60008733604051602001610f009291906125a0565b6040516020818303038152906040528051906020012090508660026000838152602001908152602001600020600201541015610f71576040517f08c379a0000000000000000000000000000000000000000000000000000000008152600401610f68906128c4565b60405180910390fd5b8660016000848152602001908152602001600020600601541115610fca576040517f08c379a0000000000000000000000000000000000000000000000000000000008152600401610fc190612956565b60405180910390fd5b8660016000848152602001908152602001600020600701541015611023576040517f08c379a000000000000000000000000000000000000000000000000000000000815260040161101a906129e8565b60405180910390fd5b86600260008381526020019081526020016000206002015461104591906122e2565b600260008381526020019081526020016000206002018190555086600360008481526020019081526020016000205461107e91906122e2565b6003600084815260200190815260200160002081905550866004546110a391906122e2565b60048190555060006001600084815260200190815260200160002060030160009054906101000a900473ffffffffffffffffffffffffffffffffffffffff16905060008173ffffffffffffffffffffffffffffffffffffffff16348a611109919061218e565b60405161111590612347565b60006040518083038185875af1925050503d8060008114611152576040519150601f19603f3d011682016040523d82523d6000602084013e611157565b606091505b505090508061119b576040517f08c379a0000000000000000000000000000000000000000000000000000000008152600401611192906123a8565b60405180910390fd5b837fa4c0737b4e9203a412e0315b00386ff91fa1ac4d6f4e1e67e3449f9956e7f4248a346040516111cd929190611e1a565b60405180910390a2505050506001600081905550505050505050565b60008160006002600083336040516020016112059291906125a0565b60405160208183030381529060405280519060200120815260200190815260200160002090503373ffffffffffffffffffffffffffffffffffffffff168160010160009054906101000a900473ffffffffffffffffffffffffffffffffffffffff1673ffffffffffffffffffffffffffffffffffffffff16146112bd576040517f08c379a00000000000000000000000000000000000000000000000000000000081526004016112b49061270e565b60405180910390fd5b600084336040516020016112d29291906125a0565b60405160208183030381529060405280519060200120905060026000828152602001908152602001600020600201549350505050919050565b600080600080600080600080886040516020016113289190611fa7565b604051602081830303815290604052805190602001209050600160008281526020019081526020016000206002015497506001600082815260200190815260200160002060030160009054906101000a900473ffffffffffffffffffffffffffffffffffffffff169550600160008281526020019081526020016000206004015494506001600082815260200190815260200160002060050154935060016000828152602001908152602001600020600601549250600160008281526020019081526020016000206007015491508760016000838152602001908152602001600020600101541061141c5760019650611421565b600096505b50919395979092949650565b60008082600060016000836040516020016114489190611fa7565b60405160208183030381529060405280519060200120815260200190815260200160002090508060000160009054906101000a900473ffffffffffffffffffffffffffffffffffffffff1673ffffffffffffffffffffffffffffffffffffffff163373ffffffffffffffffffffffffffffffffffffffff1614611500576040517f08c379a00000000000000000000000000000000000000000000000000000000081526004016114f790612041565b60405180910390fd5b6000856040516020016115139190611fa7565b6040516020818303038152906040528051906020012090506001600082815260200190815260200160002060010154945060036000828152602001908152602001600020549350505050915091565b6000876040516020016115759190611fa7565b604051602081830303815290604052805190602001209050600073ffffffffffffffffffffffffffffffffffffffff166001600083815260200190815260200160002060000160009054906101000a900473ffffffffffffffffffffffffffffffffffffffff1673ffffffffffffffffffffffffffffffffffffffff1614611632576040517f08c379a000000000000000000000000000000000000000000000000000000000815260040161162990612a54565b60405180910390fd5b838510611674576040517f08c379a000000000000000000000000000000000000000000000000000000000815260040161166b90612ae6565b60405180910390fd5b600034116116b7576040517f08c379a00000000000000000000000000000000000000000000000000000000081526004016116ae90612b52565b60405180910390fd5b600087116116fa576040517f08c379a00000000000000000000000000000000000000000000000000000000081526004016116f190612be4565b60405180910390fd5b3487111561173d576040517f08c379a000000000000000000000000000000000000000000000000000000000815260040161173490612c76565b60405180910390fd5b3373ffffffffffffffffffffffffffffffffffffffff168673ffffffffffffffffffffffffffffffffffffffff1614156117ac576040517f08c379a00000000000000000000000000000000000000000000000000000000081526004016117a390612d08565b60405180910390fd5b600085116117ef576040517f08c379a00000000000000000000000000000000000000000000000000000000081526004016117e690612d74565b60405180910390fd5b60008411611832576040517f08c379a000000000000000000000000000000000000000000000000000000000815260040161182990612de0565b60405180910390fd5b60008311611875576040517f08c379a000000000000000000000000000000000000000000000000000000000815260040161186c90612e72565b60405180910390fd5b600082116118b8576040517f08c379a00000000000000000000000000000000000000000000000000000000081526004016118af90612f04565b60405180910390fd5b8282116118fa576040517f08c379a00000000000000000000000000000000000000000000000000000000081526004016118f190612fbc565b60405180910390fd5b336001600083815260200190815260200160002060000160006101000a81548173ffffffffffffffffffffffffffffffffffffffff021916908373ffffffffffffffffffffffffffffffffffffffff160217905550346001600083815260200190815260200160002060010181905550866001600083815260200190815260200160002060020181905550856001600083815260200190815260200160002060030160006101000a81548173ffffffffffffffffffffffffffffffffffffffff021916908373ffffffffffffffffffffffffffffffffffffffff16021790555084600160008381526020019081526020016000206004018190555083600160008381526020019081526020016000206005018190555082600160008381526020019081526020016000206006018190555081600160008381526020019081526020016000206007018190555034600360008381526020019081526020016000208190555034600454611a6c919061218e565b6004819055508573ffffffffffffffffffffffffffffffffffffffff163373ffffffffffffffffffffffffffffffffffffffff16827f3e3b2234a069c2d401cb8d3845fc0eb1d83b7e9ed3b7036f69a6368e0ea292818b348c8b8b8b8b42604051611ade989796959493929190613015565b60405180910390a45050505050505050565b6000604051905090565b600080fd5b600080fd5b600080fd5b600080fd5b6000601f19601f8301169050919050565b7f4e487b7100000000000000000000000000000000000000000000000000000000600052604160045260246000fd5b611b5782611b0e565b810181811067ffffffffffffffff82111715611b7657611b75611b1f565b5b80604052505050565b6000611b89611af0565b9050611b958282611b4e565b919050565b600067ffffffffffffffff821115611bb557611bb4611b1f565b5b611bbe82611b0e565b9050602081019050919050565b82818337600083830152505050565b6000611bed611be884611b9a565b611b7f565b905082815260208101848484011115611c0957611c08611b09565b5b611c14848285611bcb565b509392505050565b600082601f830112611c3157611c30611b04565b5b8135611c41848260208601611bda565b91505092915050565b600060208284031215611c6057611c5f611afa565b5b600082013567ffffffffffffffff811115611c7e57611c7d611aff565b5b611c8a84828501611c1c565b91505092915050565b6000819050919050565b611ca681611c93565b8114611cb157600080fd5b50565b600081359050611cc381611c9d565b92915050565b60008060408385031215611ce057611cdf611afa565b5b600083013567ffffffffffffffff811115611cfe57611cfd611aff565b5b611d0a85828601611c1c565b9250506020611d1b85828601611cb4565b9150509250929050565b611d2e81611c93565b82525050565b6000602082019050611d496000830184611d25565b92915050565b60008115159050919050565b611d6481611d4f565b82525050565b600073ffffffffffffffffffffffffffffffffffffffff82169050919050565b6000611d9582611d6a565b9050919050565b611da581611d8a565b82525050565b600060e082019050611dc0600083018a611d25565b611dcd6020830189611d5b565b611dda6040830188611d9c565b611de76060830187611d25565b611df46080830186611d25565b611e0160a0830185611d25565b611e0e60c0830184611d25565b98975050505050505050565b6000604082019050611e2f6000830185611d25565b611e3c6020830184611d25565b9392505050565b611e4c81611d8a565b8114611e5757600080fd5b50565b600081359050611e6981611e43565b92915050565b600080600080600080600060e0888a031215611e8e57611e8d611afa565b5b600088013567ffffffffffffffff811115611eac57611eab611aff565b5b611eb88a828b01611c1c565b9750506020611ec98a828b01611cb4565b9650506040611eda8a828b01611e5a565b9550506060611eeb8a828b01611cb4565b9450506080611efc8a828b01611cb4565b93505060a0611f0d8a828b01611cb4565b92505060c0611f1e8a828b01611cb4565b91505092959891949750929550565b600081519050919050565b600081905092915050565b60005b83811015611f61578082015181840152602081019050611f46565b83811115611f70576000848401525b50505050565b6000611f8182611f2d565b611f8b8185611f38565b9350611f9b818560208601611f43565b80840191505092915050565b6000611fb38284611f76565b915081905092915050565b600082825260208201905092915050565b7f43616c6c65722041646472657373206973206e6f74207468652073706f6e736f60008201527f722061646472657373206f66207468652070726f6d6f74696f6e20636f646500602082015250565b600061202b603f83611fbe565b915061203682611fcf565b604082019050919050565b6000602082019050818103600083015261205a8161201e565b9050919050565b7f50726f6d6f74696f6e206973206e6f742063757272656e746c792076616c6964600082015250565b6000612097602083611fbe565b91506120a282612061565b602082019050919050565b600060208201905081810360008301526120c68161208a565b9050919050565b7f546f702075702076616c7565206d75737420626520677265617465722074686160008201527f6e20300000000000000000000000000000000000000000000000000000000000602082015250565b6000612129602383611fbe565b9150612134826120cd565b604082019050919050565b600060208201905081810360008301526121588161211c565b9050919050565b7f4e487b7100000000000000000000000000000000000000000000000000000000600052601160045260246000fd5b600061219982611c93565b91506121a483611c93565b9250827fffffffffffffffffffffffffffffffffffffffffffffffffffffffffffffffff038211156121d9576121d861215f565b5b828201905092915050565b7f5265656e7472616e637947756172643a207265656e7472616e742063616c6c00600082015250565b600061221a601f83611fbe565b9150612225826121e4565b602082019050919050565b600060208201905081810360008301526122498161220d565b9050919050565b7f546f20636f6c6c656374206c6566746f7665722045746865722c20746865207060008201527f726f6d6f74696f6e206d75737420657870697265206669727374000000000000602082015250565b60006122ac603a83611fbe565b91506122b782612250565b604082019050919050565b600060208201905081810360008301526122db8161229f565b9050919050565b60006122ed82611c93565b91506122f883611c93565b92508282101561230b5761230a61215f565b5b828203905092915050565b600081905092915050565b50565b6000612331600083612316565b915061233c82612321565b600082019050919050565b600061235282612324565b9150819050919050565b7f4661696c656420746f2073656e64204574686572000000000000000000000000600082015250565b6000612392601483611fbe565b915061239d8261235c565b602082019050919050565b600060208201905081810360008301526123c181612385565b9050919050565b7f53706f6e736f722063616e6e6f742072656465656d20636f75706f6e00000000600082015250565b60006123fe601c83611fbe565b9150612409826123c8565b602082019050919050565b6000602082019050818103600083015261242d816123f1565b9050919050565b7f54617267657420616464726573732063616e6e6f742072656465656d20636f7560008201527f706f6e0000000000000000000000000000000000000000000000000000000000602082015250565b6000612490602383611fbe565b915061249b82612434565b604082019050919050565b600060208201905081810360008301526124bf81612483565b9050919050565b7f50726f6d6f74696f6e2062616c616e636520696e73756666696369656e74207460008201527f6f20616c6c6f6361746520746f20636f75706f6e000000000000000000000000602082015250565b6000612522603483611fbe565b915061252d826124c6565b604082019050919050565b6000602082019050818103600083015261255181612515565b9050919050565b60008160601b9050919050565b600061257082612558565b9050919050565b600061258282612565565b9050919050565b61259a61259582611d8a565b612577565b82525050565b60006125ac8285611f76565b91506125b88284612589565b6014820191508190509392505050565b7f557365722068617320726564656d656564207468652070726f6d6f74696f6e2060008201527f636f646520616c72656164790000000000000000000000000000000000000000602082015250565b6000612624602c83611fbe565b915061262f826125c8565b604082019050919050565b6000602082019050818103600083015261265381612617565b9050919050565b6000819050919050565b61266d8161265a565b82525050565b60006040820190506126886000830185612664565b6126956020830184611d25565b9392505050565b7f43616c6c6572204164647265737320686173206e6f742072656465656d65642060008201527f7468652070726f6d6f74696f6e20636f64650000000000000000000000000000602082015250565b60006126f8603283611fbe565b91506127038261269c565b604082019050919050565b60006020820190508181036000830152612727816126eb565b9050919050565b7f416d6f756e742073656e74206d7573742062652061206e6f6e206e656761746960008201527f7665206e756d6265720000000000000000000000000000000000000000000000602082015250565b600061278a602983611fbe565b91506127958261272e565b604082019050919050565b600060208201905081810360008301526127b98161277d565b9050919050565b7f436f75706f6e207472616e73616374696f6e20616d6f756e74206d757374206260008201527f652067726561746572207468616e203000000000000000000000000000000000602082015250565b600061281c603083611fbe565b9150612827826127c0565b604082019050919050565b6000602082019050818103600083015261284b8161280f565b9050919050565b7f436f75706f6e20616d6f756e742069732067726561746572207468616e20746860008201527f652062616c616e63650000000000000000000000000000000000000000000000602082015250565b60006128ae602983611fbe565b91506128b982612852565b604082019050919050565b600060208201905081810360008301526128dd816128a1565b9050919050565b7f436f75706f6e207472616e73616374696f6e20616d6f756e74206973206c657360008201527f736572207468616e20746865206d696e696d756d20616d6f756e740000000000602082015250565b6000612940603b83611fbe565b915061294b826128e4565b604082019050919050565b6000602082019050818103600083015261296f81612933565b9050919050565b7f436f75706f6e207472616e73616374696f6e20616d6f756e742069732067726560008201527f61746572207468616e20746865206d6178696d756d20616d6f756e7400000000602082015250565b60006129d2603c83611fbe565b91506129dd82612976565b604082019050919050565b60006020820190508181036000830152612a01816129c5565b9050919050565b7f50726f6d6f74696f6e20636f646520616c726561647920657869737473000000600082015250565b6000612a3e601d83611fbe565b9150612a4982612a08565b602082019050919050565b60006020820190508181036000830152612a6d81612a31565b9050919050565b7f53746172742064617465206d757374206265206561726c696572207468616e2060008201527f656e642064617465000000000000000000000000000000000000000000000000602082015250565b6000612ad0602883611fbe565b9150612adb82612a74565b604082019050919050565b60006020820190508181036000830152612aff81612ac3565b9050919050565b7f546f74616c20457468206d7573742062652067726561746572207468616e2030600082015250565b6000612b3c602083611fbe565b9150612b4782612b06565b602082019050919050565b60006020820190508181036000830152612b6b81612b2f565b9050919050565b7f457468207065722061646472657373206d75737420626520677265617465722060008201527f7468616e20300000000000000000000000000000000000000000000000000000602082015250565b6000612bce602683611fbe565b9150612bd982612b72565b604082019050919050565b60006020820190508181036000830152612bfd81612bc1565b9050919050565b7f457468207065722061646472657373206d757374206265206c6573736572207460008201527f68616e206f7220657175616c20746f20746f74616c2045746820616d6f756e74602082015250565b6000612c60604083611fbe565b9150612c6b82612c04565b604082019050919050565b60006020820190508181036000830152612c8f81612c53565b9050919050565b7f53706f6e736f7220616464726573732063616e6e6f742062652074686520736160008201527f6d65206173207461726765742061646472657373000000000000000000000000602082015250565b6000612cf2603483611fbe565b9150612cfd82612c96565b604082019050919050565b60006020820190508181036000830152612d2181612ce5565b9050919050565b7f53746172742064617465206973206e6f742070726573656e7400000000000000600082015250565b6000612d5e601983611fbe565b9150612d6982612d28565b602082019050919050565b60006020820190508181036000830152612d8d81612d51565b9050919050565b7f456e642064617465206973206e6f742070726573656e74000000000000000000600082015250565b6000612dca601783611fbe565b9150612dd582612d94565b602082019050919050565b60006020820190508181036000830152612df981612dbd565b9050919050565b7f4d696e696d756d2072656465656d20616d6f756e74206973206e6f742070726560008201527f73656e7400000000000000000000000000000000000000000000000000000000602082015250565b6000612e5c602483611fbe565b9150612e6782612e00565b604082019050919050565b60006020820190508181036000830152612e8b81612e4f565b9050919050565b7f4d6178696d756d2072656465656d20616d6f756e74206973206e6f742070726560008201527f73656e7400000000000000000000000000000000000000000000000000000000602082015250565b6000612eee602483611fbe565b9150612ef982612e92565b604082019050919050565b60006020820190508181036000830152612f1d81612ee1565b9050919050565b7f4d696e696d756d2072656465656d20616d6f756e74206d75737420626520677260008201527f656174686572207468616e206d6178696d756d2072656465656d20616d6f756e60208201527f7400000000000000000000000000000000000000000000000000000000000000604082015250565b6000612fa6604183611fbe565b9150612fb182612f24565b606082019050919050565b60006020820190508181036000830152612fd581612f99565b9050919050565b6000612fe782611f2d565b612ff18185611fbe565b9350613001818560208601611f43565b61300a81611b0e565b840191505092915050565b6000610100820190508181036000830152613030818b612fdc565b905061303f602083018a611d25565b61304c6040830189611d25565b6130596060830188611d25565b6130666080830187611d25565b61307360a0830186611d25565b61308060c0830185611d25565b61308d60e0830184611d25565b999850505050505050505056fea2646970667358221220893a1f6c3ddea94b8247b57a71d796455be8efa0d85226ad413259aeedeec70a64736f6c634300080a0033",
  "immutableReferences": {},
  "source": "// SPDX-License-Identifier: MIT\n// pragma solidity ^0.5.0;\npragma solidity ^0.8.0;\n\n\nimport \"@openzeppelin/contracts/security/ReentrancyGuard.sol\";\n\ncontract EthCoupon is ReentrancyGuard {\n\n    /// @title EthCoupon\n    /// @author Justin Chan\n\n    /**\n    / @notice EthCoupon is a smart contract that allow people to hand out free Ethereum to other Ethereum users that only can be spend in specific Ethereum addresses \n    like how shopping coupons work. Shopping coupon works by  giving people coupons that allow them to spend a specific amount of money for free at only \n    the outlets at specific stores only. Thus, this smart contract is bringing the concept of shopping coupons to \n    the Ethereum blockchain whereby account holders can redeem free Ethereum to give to addresses that are specified by the coupon author.\n    \n    For example: If the account gives out 5 Ethereum that only can be given to address 0x71C7656EC7ab88b098defB751B7401B5f6d8976F, \n    the person who redeems the free Ethereum cannot give it to address 0x81C7656EC7ab88b098defB751B7401B5f6d8976F \n    but instead only can give to account 0x71C7656EC7ab88b098defB751B7401B5f6d8976F. \n    Account holders that have the free Ethereum can top up the redeemed amount by adding more funds from their existing Ethereum balance. \n    Through this system, it is hoped that third party organisations and account holders can hold promotions to encourage adoption of early stage DAPPS(decentralised applications) \n    whether financial in nature or not by giving out free Ethereum for people to spend at the specific DAPPS that the organisation or account holder is currently sponsoring.\n    \n    Currently, the bottleneck of DAPPS adoption is the lack of financial rebates for early adopters to try out the DAPP before it becomes popular \n    unlike in the real world where financial rebates and discount are given to people to encourage purchase of items. \n    For example: I can lock up 1000 Ethereum to allow people to spend 0.05 Ethereum each at the at ethereum address 0x81C7656EC7ab88b098defB751B7401B5f6d8976F. \n    Thus, I provide opportunity for 20000 people for spend free 0.05 Ethereum each at Ethereum address 0x81C7656EC7ab88b098defB751B7401B5f6d8976F. \n    Besides redeem amount, the valid date range, minimum transaction amount and maximum transaction amount of the transaction can be made by the promotion organisers.  \n    When the promotional fund balance is low, the promotion sponsor can top up more funds for the promotion using the smart contract.\n    \n    Stakeholders in the system\n\n    1. Sponsor(Account holder that initiates the promotion and sponsors the event)\n    2. Account holder(Redeems promotional amount and spends the free Ethereum at the selected address)\n\n    Use cases:\n\n    1. Mint coupon(Sponsor)\n    2. Collect leftover Ether(Sponsor)\n    3. Top up Promotion fund(Sponsor)\n    4. Redeem coupon(User)\n    5. Execute transaction(User)\n    6. Check promotion balance(Sponsor)\n    7. Check coupon details(public)\n    8. Check coupon balance(User)\n\n    // Assumptions:\n\n    1. Sponsor cannot change the details of the promotion after it is created.\n    2. At present, only ether sending to another account is supported. No smart contract specific function calls are supported but it will be a future function.\n    */\n\n    // Data Storage Layout\n    \n    // Struct to hold promotion details of a promotion code\n    \n    struct promotion{\n        address sponsorAddress;\n        uint256 totalEth;\n        uint256 amtPerAddress;\n        address targetAddress;\n        uint256 startDate;\n        uint256 endDate;\n        uint256 minRedeemAmt;\n        uint256 maxRedeemAmt;\n    }\n    \n    // Map of hash of promotion code to the promotion details struct\n   mapping(bytes32=>promotion) private PromotionDetails;\n   \n    // Struct to hold coupon details of each user for a promotion code\n    struct couponDetails{\n        bytes32 promotionCode;\n        address userAddress;\n        uint256 existingBalance;\n    }\n    \n    // Map of coupon details to hash of user account and promotion code\n    mapping(bytes32=>couponDetails) private CouponList;\n    \n    // Map of promotion code to unspent balance. When the coupon holder spents the coupon amount, the balance is deducted from the mapping\n    mapping(bytes32=>uint256) private UnspentBalance;\n    \n    // Total funds remaining in the contract\n    uint256 private totalFunds;\n    \n    // List of events\n\n    /// @notice Emitted when a promotion is added\n    /// @param couponHash Hash of the promotion code\n    /// @param sponsorAddress Address of the promotion creator\n    /// @param targetAddress Address where the coupon holder only can spend the redeemed Ether at\n    /// @param couponCode Promotion code\n    /// @param totalEth Total Ether deposited into the promotion by the creator\n    /// @param amtPerAddress Amount deposited into the coupon to be spend once redemeed by an address\n    /// @param startDate Start date of the promotion\n    /// @param endDate End date of the promotion\n    /// @param minRedeemAmt Minimum amount that the user can spent from the coupon at a single transaction\n    /// @param maxRedeemAmt Maximum amount that the user can spent from the coupon at a single transaction\n    /// @param dateCreated Date Promotion was created\n    event Promotion(bytes32 indexed couponHash,address indexed sponsorAddress,address indexed targetAddress,string couponCode,uint256 totalEth,uint256 amtPerAddress,uint256 startDate,uint256 endDate,uint256 minRedeemAmt,uint256 maxRedeemAmt,uint256 dateCreated);\n    \n    /// @notice Emitted when a promotion's funds are top up\n    /// @param couponHash Hash of the promotion code of the promotion that was top up\n    /// @param amount Amount top up\n    /// @param date Date top up\n    event TopUp(string indexed couponHash, uint256 amount, uint256 date);\n    \n    /// @notice Emitted when a coupon was redeemed by an address\n    /// @param couponHash Hash of the promotion code of the coupon redeemed by the address\n    /// @param user Address that redeemed the coupon\n    /// @param RedeemID Hash of promotion code and redeemer address combined to act as identifier for coupon\n    /// @param date Date Coupon was redeemed\n    event Redeem(bytes32 indexed couponHash, address indexed user, bytes32 RedeemID,uint256 date);\n\n    /// @notice Emitted when a coupon transaction was made\n    /// @param RedeemID Hash of promotion code and redeemer address combined to act as identifier for coupon\n    /// @param couponAmt Amount spent from coupon\n    /// @param walletAmt Amount spent from address balance\n    event Transaction(bytes32 indexed RedeemID, uint256 couponAmt, uint256 walletAmt);\n\n    /// @notice Emitted when leftover promotion funds are collected by the creator after the promotion ends\n    /// @param couponHash Hash of the promotion code to collect leftover funds from\n    /// @param amount Leftover Ether amount collected by creator\n    /// @param date Date Leftover Ether was collected\n    event CollectLeftOver(bytes32 indexed couponHash, uint256 amount, uint256 date);\n    \n    // List of modifiers\n    \n    // Check if a promotion is currently valid\n    modifier IsValidDate(string memory promotionCode){\n        promotion storage promo = PromotionDetails[keccak256(abi.encodePacked(promotionCode))];\n        require((promo.startDate <= block.timestamp) && (promo.endDate >= block.timestamp), \"Promotion is not currently valid\");\n        _;\n    }\n    \n    // Check if caller address is the sponsor address of the promotion couponCode\n    modifier IsSponsorAddress(string memory promotionCode){\n        promotion storage promo = PromotionDetails[keccak256(abi.encodePacked(promotionCode))];\n        require(msg.sender == promo.sponsorAddress, \"Caller Address is not the sponsor address of the promotion code\");\n        _;\n    }\n    \n    // Check if caller address has redeemed the promotion code\n    modifier IsValidHolder(string memory promotionCode){\n        couponDetails storage coupon = CouponList[keccak256(abi.encodePacked(promotionCode,msg.sender))];\n        require(coupon.userAddress == msg.sender, \"Caller Address has not redeemed the promotion code\");\n        _;\n    }\n    \n   constructor() {\n   }\n   \n   /// @notice The mint function creates a new promotion code that accepts parameter name, total Eth per address, target address, start date, end date, minimum redeem amount and maximum redeem amount\n   /// @dev The promotion code must not be used by any promotion before\n   /// @param promoCode Promotion Code\n   /// @param totalPerAddress Amount of Ether deposited to an address when redeemed.\n   /// @param targetAddress Address where the redeemed Ether can only be transferred to.\n   /// @param startDate Start Date of the promotion\n   /// @param endDate End Date of the promotion\n   /// @param minRedeemAmt Minimum amount that the user can spent from the coupon at a single transaction.\n   /// @param maxRedeemAmt Maximum amount that the user can spent from the coupon at a single transaction.\n   function mint(string memory promoCode, uint256 totalPerAddress, address targetAddress, uint256 startDate, uint256 endDate, uint256 minRedeemAmt, uint256 maxRedeemAmt) public payable{\n       \n       bytes32 hashPromo = keccak256(abi.encodePacked(promoCode));\n       // Check if redeem code exists\n       require(PromotionDetails[hashPromo].sponsorAddress == address(0x0),\"Promotion code already exists\");\n       // Check if start date is earlier than end date\n       require(startDate < endDate,\"Start date must be earlier than end date\");\n       // Check if totalEth is greather than 0\n       require(msg.value > 0,\"Total Eth must be greater than 0\");\n       // Check if Eth per address is greather than 0\n       require(totalPerAddress > 0,\"Eth per address must be greater than 0\");\n       // Check if Eth per address is lesser than or equal to total Eth\n       require(totalPerAddress <= msg.value,\"Eth per address must be lesser than or equal to total Eth amount\");\n        // Check if sponsor address is similar to target adaddress\n       require(targetAddress != msg.sender,\"Sponsor address cannot be the same as target address\");\n       // Check if start date is present\n       require(startDate > 0,\"Start date is not present\");\n       // Check if end date is present\n       require(endDate > 0,\"End date is not present\");\n       // Check if minimum redeem amount is present\n       require(minRedeemAmt > 0,\"Minimum redeem amount is not present\");\n       // Check if maximum redeem amount is present\n       require(maxRedeemAmt > 0,\"Maximum redeem amount is not present\");\n       // Check if minimum redeem amount is lesser than the maximum redeem amount\n       require(maxRedeemAmt > minRedeemAmt,\"Minimum redeem amount must be greather than maximum redeem amount\");\n       \n       // Create new promotion\n       PromotionDetails[hashPromo].sponsorAddress = msg.sender;\n       PromotionDetails[hashPromo].totalEth = msg.value;\n       PromotionDetails[hashPromo].amtPerAddress = totalPerAddress;\n       PromotionDetails[hashPromo].targetAddress = targetAddress;\n       PromotionDetails[hashPromo].startDate = startDate;\n       PromotionDetails[hashPromo].endDate = endDate;\n       PromotionDetails[hashPromo].minRedeemAmt = minRedeemAmt;\n       PromotionDetails[hashPromo].maxRedeemAmt = maxRedeemAmt;\n       UnspentBalance[hashPromo] = msg.value;\n       totalFunds = totalFunds + msg.value;\n       emit Promotion(hashPromo,msg.sender,targetAddress,promoCode,msg.value,totalPerAddress,startDate,endDate,minRedeemAmt,maxRedeemAmt,block.timestamp);\n   }  \n   \n   /// @notice The collectLeftoverEther function enables the promotion sponsor to collect unspent Ether after the promotion ends.\n   /// @dev Only the promotion sponsor can call this function\n   /// @param promoCode Promotion code of the promotion to collect the leftover Ether after the promotion ends\n   function collectLeftoverEther(string memory promoCode) public IsSponsorAddress(promoCode) nonReentrant{\n       bytes32 hashPromo = keccak256(abi.encodePacked(promoCode));\n       // Check if promotion date is expired already\n       require(block.timestamp > PromotionDetails[hashPromo].endDate,\"To collect leftover Ether, the promotion must expire first\");\n       // Return leftover ether to the sponsor\n       address payable sponsor = payable(PromotionDetails[hashPromo].sponsorAddress);\n       uint256 returnAmt = UnspentBalance[hashPromo];\n       // Reset all values first to avoid re-entrancy attacks\n       UnspentBalance[hashPromo] = 0;\n       totalFunds = totalFunds - returnAmt;\n       PromotionDetails[hashPromo].totalEth = 0;\n       (bool sent,) = sponsor.call{value:returnAmt}(\"\");\n       require(sent, \"Failed to send Ether\");\n       emit CollectLeftOver(hashPromo, returnAmt, block.timestamp);\n   }\n   \n   /// @notice The topUp function enables the promotion sponsor to top up the promotion amount for a promotion code as long as the promotion is valid.\n   /// @dev Only the promotion sponsor can call this function\n   /// @param promoCode Promotion code of the promotion funds to be top up with.\n   function topUp(string memory promoCode) public payable IsSponsorAddress(promoCode) IsValidDate(promoCode){\n       require(msg.value > 0,\"Top up value must be greater than 0\");\n       bytes32 hashPromo = keccak256(abi.encodePacked(promoCode));\n       PromotionDetails[hashPromo].totalEth = PromotionDetails[hashPromo].totalEth + msg.value;\n       UnspentBalance[hashPromo] = UnspentBalance[hashPromo] + msg.value;\n       totalFunds = totalFunds + msg.value;\n       emit TopUp(promoCode, msg.value, block.timestamp);\n   }\n   \n   /// @notice The checkPromotionalBalance function enables the promotion sponsor to check the leftOver and unspentEther of the promotion\n   /// @dev Only the promotion sponsor can call this function\n   /// @param promoCode Promotion code of the promotion to check the leftover and unspent Ether\n   /// @return leftOver\n   /// @return unspentEther\n   function checkPromotionalBalance(string memory promoCode) public view IsSponsorAddress(promoCode) returns(uint256 leftOver,uint256 unspentEther) {\n      bytes32 hashPromo = keccak256(abi.encodePacked(promoCode));\n      leftOver = PromotionDetails[hashPromo].totalEth;\n      unspentEther = UnspentBalance[hashPromo];\n   }\n   \n   /// @notice The redeem function enables an account holder to redeem a promotion coupon based on the promotion code as long as the promotion is valid.\n   /// @dev Sponsor and target address cannot call the redeem function to redeem the promotion code that is assigned.\n   /// @param promoCode Promotion code of the coupon the user wants to redeem.\n   function redeem(string memory promoCode) public IsValidDate(promoCode){\n       bytes32 hashPromo = keccak256(abi.encodePacked(promoCode));\n        // sponsor cannot redeem coupon\n       require(PromotionDetails[hashPromo].sponsorAddress != msg.sender,\"Sponsor cannot redeem coupon\");\n       // target address cannot redeem coupon\n       require(PromotionDetails[hashPromo].targetAddress != msg.sender,\"Target address cannot redeem coupon\");\n        // Check if the coupon has enough to allocated the amount to coupon\n       require(PromotionDetails[hashPromo].totalEth >= PromotionDetails[hashPromo].amtPerAddress, \"Promotion balance insufficient to allocate to coupon\");\n       // Check if the user has redemeed the promotion code yet\n       bytes32 promoUser = keccak256(abi.encodePacked(promoCode,msg.sender));\n       require(CouponList[promoUser].userAddress != msg.sender,\"User has redemeed the promotion code already\");\n       // Create new couponDetails object and allocate eth from the promotion's struct totalEth. The promotion's struct new totalEth is totalEth - amtPerAddress\n       CouponList[promoUser].promotionCode = keccak256(abi.encodePacked(promoCode));\n       CouponList[promoUser].userAddress = msg.sender;\n       CouponList[promoUser].existingBalance = PromotionDetails[hashPromo].amtPerAddress;\n       // update promotion new Eth balance after allocating it to the coupon redeemer.\n       PromotionDetails[hashPromo].totalEth = PromotionDetails[hashPromo].totalEth - PromotionDetails[hashPromo].amtPerAddress;\n       emit Redeem(hashPromo, msg.sender, promoUser,block.timestamp);\n       \n   }\n   \n   /// @notice The transaction function enables an account holder to spend a coupon's value for a redeemed coupon\n   /// @dev Only the coupon holder can call this function\n   /// @param promoCode Promotion code of the coupon the user wants to do transaction with.\n   /// @param couponAmt Amount the user wants to use from the coupon when making a transaction.\n   function transaction(string memory promoCode,uint256 couponAmt) public payable IsValidDate(promoCode) IsValidHolder(promoCode) nonReentrant{\n      bytes32 hashPromo = keccak256(abi.encodePacked(promoCode));\n       // check if amount from wallet is a non negative number\n      require(msg.value >= 0,\"Amount sent must be a non negative number\");\n      // check if amount from coupon is greater than 0\n      require(couponAmt > 0,\"Coupon transaction amount must be greater than 0\");\n      bytes32 promoUser = keccak256(abi.encodePacked(promoCode,msg.sender));\n      // check if coupon transaction amount is greater than or equal to the coupon's balance\n      require(CouponList[promoUser].existingBalance >= couponAmt, \"Coupon amount is greater than the balance\");\n      // check if coupon transaction amount is less than the minRedeemAmt\n      require(PromotionDetails[hashPromo].minRedeemAmt <= couponAmt, \"Coupon transaction amount is lesser than the minimum amount\");\n      // check if coupon transaction amount is greater than the maxRedeemAmt\n      require(PromotionDetails[hashPromo].maxRedeemAmt >= couponAmt, \"Coupon transaction amount is greater than the maximum amount\");\n      // update couponDetails struct's balance, UnspentBalance balance and totalFunds first to avoid re-entrancy attacks\n      // These balances are updated by deducting the coupon amount from them\n      CouponList[promoUser].existingBalance = CouponList[promoUser].existingBalance - couponAmt;\n      UnspentBalance[hashPromo] = UnspentBalance[hashPromo] - couponAmt;\n      totalFunds = totalFunds - couponAmt;\n      // the amount sent to the recipient is couponAmt + wallet amount \n      address payable recipient = payable(PromotionDetails[hashPromo].targetAddress);\n      (bool sent,) = recipient.call{value:couponAmt + msg.value}(\"\");\n      require(sent, \"Failed to send Ether\");\n      emit Transaction(hashPromo, couponAmt, msg.value);\n   }\n   \n   /// @notice The checkCouponBalance function enables an account holder to check a coupon's balance\n   /// @dev Only the coupon holder can call this function\n   /// @param promoCode Promotion code of the coupon the user wants to check the balance of.\n   /// @return amt\n   function checkCouponBalance(string memory promoCode) public view IsValidHolder(promoCode) returns(uint256 amt) {\n        bytes32 promoUser = keccak256(abi.encodePacked(promoCode,msg.sender));\n        amt = CouponList[promoUser].existingBalance;\n   }\n   \n   /// @notice The checkPromotionDetails function enables anyone to check the promotion details of a promotion\n   /// @param promoCode Promotion code of the promotion to be enquired.\n   /// @return totalPerAddress\n   /// @return isPromoValid\n   /// @return targetAddress\n   /// @return startDate\n   /// @return endDate\n   /// @return minRedeemAmt\n   /// @return maxRedeemAmt\n   function checkPromotionDetails(string memory promoCode) public view returns(uint256 totalPerAddress, bool isPromoValid , address targetAddress, uint256 startDate, uint256 endDate, uint256 minRedeemAmt, uint256 maxRedeemAmt){\n       bytes32 hashPromo = keccak256(abi.encodePacked(promoCode));\n       totalPerAddress = PromotionDetails[hashPromo].amtPerAddress;\n       targetAddress = PromotionDetails[hashPromo].targetAddress;\n       startDate = PromotionDetails[hashPromo].startDate;\n       endDate = PromotionDetails[hashPromo].endDate;\n       minRedeemAmt = PromotionDetails[hashPromo].minRedeemAmt;\n       maxRedeemAmt = PromotionDetails[hashPromo].maxRedeemAmt;\n       // returns promotion status by checking if there is still redemmable eth in the coupon\n       if(PromotionDetails[hashPromo].totalEth >= totalPerAddress){\n           isPromoValid = true;\n       }\n       else{\n           isPromoValid = false;\n       }\n   }\n   \n}\n",
  "sourcePath": "/Volumes/Data/BlockchainCourse/Repos/blockchain-developer-bootcamp-final-project/contracts/EthCoupon.sol",
  "compiler": {
    "name": "solc",
    "version": "0.8.10+commit.fc410830.Emscripten.clang"
  },
  "schemaVersion": "3.4.3",
  "updatedAt": "2021-12-09T15:12:19.101Z",
  "devdoc": {
    "events": {
      "CollectLeftOver(bytes32,uint256,uint256)": {
        "params": {
          "amount": "Leftover Ether amount collected by creator",
          "couponHash": "Hash of the promotion code to collect leftover funds from",
          "date": "Date Leftover Ether was collected"
        }
      },
      "Promotion(bytes32,address,address,string,uint256,uint256,uint256,uint256,uint256,uint256,uint256)": {
        "params": {
          "amtPerAddress": "Amount deposited into the coupon to be spend once redemeed by an address",
          "couponCode": "Promotion code",
          "couponHash": "Hash of the promotion code",
          "dateCreated": "Date Promotion was created",
          "endDate": "End date of the promotion",
          "maxRedeemAmt": "Maximum amount that the user can spent from the coupon at a single transaction",
          "minRedeemAmt": "Minimum amount that the user can spent from the coupon at a single transaction",
          "sponsorAddress": "Address of the promotion creator",
          "startDate": "Start date of the promotion",
          "targetAddress": "Address where the coupon holder only can spend the redeemed Ether at",
          "totalEth": "Total Ether deposited into the promotion by the creator"
        }
      },
      "Redeem(bytes32,address,bytes32,uint256)": {
        "params": {
          "RedeemID": "Hash of promotion code and redeemer address combined to act as identifier for coupon",
          "couponHash": "Hash of the promotion code of the coupon redeemed by the address",
          "date": "Date Coupon was redeemed",
          "user": "Address that redeemed the coupon"
        }
      },
      "TopUp(string,uint256,uint256)": {
        "params": {
          "amount": "Amount top up",
          "couponHash": "Hash of the promotion code of the promotion that was top up",
          "date": "Date top up"
        }
      },
      "Transaction(bytes32,uint256,uint256)": {
        "params": {
          "RedeemID": "Hash of promotion code and redeemer address combined to act as identifier for coupon",
          "couponAmt": "Amount spent from coupon",
          "walletAmt": "Amount spent from address balance"
        }
      }
    },
    "kind": "dev",
    "methods": {
      "checkCouponBalance(string)": {
        "details": "Only the coupon holder can call this function",
        "params": {
          "promoCode": "Promotion code of the coupon the user wants to check the balance of."
        },
        "returns": {
          "amt": "amt"
        }
      },
      "checkPromotionDetails(string)": {
        "params": {
          "promoCode": "Promotion code of the promotion to be enquired."
        },
        "returns": {
          "endDate": "endDate",
          "isPromoValid": "isPromoValid",
          "maxRedeemAmt": "maxRedeemAmt",
          "minRedeemAmt": "minRedeemAmt",
          "startDate": "startDate",
          "targetAddress": "targetAddress",
          "totalPerAddress": "totalPerAddress"
        }
      },
      "checkPromotionalBalance(string)": {
        "details": "Only the promotion sponsor can call this function",
        "params": {
          "promoCode": "Promotion code of the promotion to check the leftover and unspent Ether"
        },
        "returns": {
          "leftOver": "leftOver",
          "unspentEther": "unspentEther"
        }
      },
      "collectLeftoverEther(string)": {
        "details": "Only the promotion sponsor can call this function",
        "params": {
          "promoCode": "Promotion code of the promotion to collect the leftover Ether after the promotion ends"
        }
      },
      "mint(string,uint256,address,uint256,uint256,uint256,uint256)": {
        "details": "The promotion code must not be used by any promotion before",
        "params": {
          "endDate": "End Date of the promotion",
          "maxRedeemAmt": "Maximum amount that the user can spent from the coupon at a single transaction.",
          "minRedeemAmt": "Minimum amount that the user can spent from the coupon at a single transaction.",
          "promoCode": "Promotion Code",
          "startDate": "Start Date of the promotion",
          "targetAddress": "Address where the redeemed Ether can only be transferred to.",
          "totalPerAddress": "Amount of Ether deposited to an address when redeemed."
        }
      },
      "redeem(string)": {
        "details": "Sponsor and target address cannot call the redeem function to redeem the promotion code that is assigned.",
        "params": {
          "promoCode": "Promotion code of the coupon the user wants to redeem."
        }
      },
      "topUp(string)": {
        "details": "Only the promotion sponsor can call this function",
        "params": {
          "promoCode": "Promotion code of the promotion funds to be top up with."
        }
      },
      "transaction(string,uint256)": {
        "details": "Only the coupon holder can call this function",
        "params": {
          "couponAmt": "Amount the user wants to use from the coupon when making a transaction.",
          "promoCode": "Promotion code of the coupon the user wants to do transaction with."
        }
      }
    },
    "version": 1
  },
  "userdoc": {
    "events": {
      "CollectLeftOver(bytes32,uint256,uint256)": {
        "notice": "Emitted when leftover promotion funds are collected by the creator after the promotion ends"
      },
      "Promotion(bytes32,address,address,string,uint256,uint256,uint256,uint256,uint256,uint256,uint256)": {
        "notice": "Emitted when a promotion is added"
      },
      "Redeem(bytes32,address,bytes32,uint256)": {
        "notice": "Emitted when a coupon was redeemed by an address"
      },
      "TopUp(string,uint256,uint256)": {
        "notice": "Emitted when a promotion's funds are top up"
      },
      "Transaction(bytes32,uint256,uint256)": {
        "notice": "Emitted when a coupon transaction was made"
      }
    },
    "kind": "user",
    "methods": {
      "checkCouponBalance(string)": {
        "notice": "The checkCouponBalance function enables an account holder to check a coupon's balance"
      },
      "checkPromotionDetails(string)": {
        "notice": "The checkPromotionDetails function enables anyone to check the promotion details of a promotion"
      },
      "checkPromotionalBalance(string)": {
        "notice": "The checkPromotionalBalance function enables the promotion sponsor to check the leftOver and unspentEther of the promotion"
      },
      "collectLeftoverEther(string)": {
        "notice": "The collectLeftoverEther function enables the promotion sponsor to collect unspent Ether after the promotion ends."
      },
      "mint(string,uint256,address,uint256,uint256,uint256,uint256)": {
        "notice": "The mint function creates a new promotion code that accepts parameter name, total Eth per address, target address, start date, end date, minimum redeem amount and maximum redeem amount"
      },
      "redeem(string)": {
        "notice": "The redeem function enables an account holder to redeem a promotion coupon based on the promotion code as long as the promotion is valid."
      },
      "topUp(string)": {
        "notice": "The topUp function enables the promotion sponsor to top up the promotion amount for a promotion code as long as the promotion is valid."
      },
      "transaction(string,uint256)": {
        "notice": "The transaction function enables an account holder to spend a coupon's value for a redeemed coupon"
      }
    },
    "version": 1
  }
}